{
  "contractName": "Charity",
  "abi": [
    {
      "inputs": [],
      "stateMutability": "nonpayable",
      "type": "constructor"
    },
    {
      "anonymous": false,
      "inputs": [
        {
          "indexed": true,
          "internalType": "address",
          "name": "owner",
          "type": "address"
        },
        {
          "indexed": true,
          "internalType": "address",
          "name": "spender",
          "type": "address"
        },
        {
          "indexed": false,
          "internalType": "uint256",
          "name": "value",
          "type": "uint256"
        }
      ],
      "name": "Approval",
      "type": "event"
    },
    {
      "anonymous": false,
      "inputs": [
        {
          "indexed": true,
          "internalType": "address",
          "name": "previousOwner",
          "type": "address"
        },
        {
          "indexed": true,
          "internalType": "address",
          "name": "newOwner",
          "type": "address"
        }
      ],
      "name": "OwnershipTransferred",
      "type": "event"
    },
    {
      "anonymous": false,
      "inputs": [
        {
          "indexed": true,
          "internalType": "address",
          "name": "from",
          "type": "address"
        },
        {
          "indexed": true,
          "internalType": "address",
          "name": "to",
          "type": "address"
        },
        {
          "indexed": false,
          "internalType": "uint256",
          "name": "value",
          "type": "uint256"
        }
      ],
      "name": "Transfer",
      "type": "event"
    },
    {
      "anonymous": false,
      "inputs": [
        {
          "indexed": true,
          "internalType": "uint256",
          "name": "_charityId",
          "type": "uint256"
        }
      ],
      "name": "donatedEvent",
      "type": "event"
    },
    {
      "inputs": [
        {
          "internalType": "uint256",
          "name": "",
          "type": "uint256"
        },
        {
          "internalType": "uint256",
          "name": "",
          "type": "uint256"
        }
      ],
      "name": "CharityDonarMappings",
      "outputs": [
        {
          "internalType": "address",
          "name": "",
          "type": "address"
        }
      ],
      "stateMutability": "view",
      "type": "function",
      "constant": true
    },
    {
      "inputs": [
        {
          "internalType": "address",
          "name": "owner",
          "type": "address"
        },
        {
          "internalType": "address",
          "name": "spender",
          "type": "address"
        }
      ],
      "name": "allowance",
      "outputs": [
        {
          "internalType": "uint256",
          "name": "",
          "type": "uint256"
        }
      ],
      "stateMutability": "view",
      "type": "function",
      "constant": true
    },
    {
      "inputs": [
        {
          "internalType": "address",
          "name": "spender",
          "type": "address"
        },
        {
          "internalType": "uint256",
          "name": "amount",
          "type": "uint256"
        }
      ],
      "name": "approve",
      "outputs": [
        {
          "internalType": "bool",
          "name": "",
          "type": "bool"
        }
      ],
      "stateMutability": "nonpayable",
      "type": "function"
    },
    {
      "inputs": [
        {
          "internalType": "address",
          "name": "account",
          "type": "address"
        }
      ],
      "name": "balanceOf",
      "outputs": [
        {
          "internalType": "uint256",
          "name": "",
          "type": "uint256"
        }
      ],
      "stateMutability": "view",
      "type": "function",
      "constant": true
    },
    {
      "inputs": [
        {
          "internalType": "uint256",
          "name": "",
          "type": "uint256"
        }
      ],
      "name": "charities",
      "outputs": [
        {
          "internalType": "uint256",
          "name": "id",
          "type": "uint256"
        },
        {
          "internalType": "string",
          "name": "name",
          "type": "string"
        },
        {
          "internalType": "uint256",
          "name": "donatedAmount",
          "type": "uint256"
        },
        {
          "internalType": "address payable",
          "name": "charityAddress",
          "type": "address"
        }
      ],
      "stateMutability": "view",
      "type": "function",
      "constant": true
    },
    {
      "inputs": [],
      "name": "charityCount",
      "outputs": [
        {
          "internalType": "uint256",
          "name": "",
          "type": "uint256"
        }
      ],
      "stateMutability": "view",
      "type": "function",
      "constant": true
    },
    {
      "inputs": [],
      "name": "contractOwner",
      "outputs": [
        {
          "internalType": "address",
          "name": "",
          "type": "address"
        }
      ],
      "stateMutability": "view",
      "type": "function",
      "constant": true
    },
    {
      "inputs": [],
      "name": "decimals",
      "outputs": [
        {
          "internalType": "uint8",
          "name": "",
          "type": "uint8"
        }
      ],
      "stateMutability": "view",
      "type": "function",
      "constant": true
    },
    {
      "inputs": [
        {
          "internalType": "address",
          "name": "spender",
          "type": "address"
        },
        {
          "internalType": "uint256",
          "name": "subtractedValue",
          "type": "uint256"
        }
      ],
      "name": "decreaseAllowance",
      "outputs": [
        {
          "internalType": "bool",
          "name": "",
          "type": "bool"
        }
      ],
      "stateMutability": "nonpayable",
      "type": "function"
    },
    {
      "inputs": [
        {
          "internalType": "address",
          "name": "spender",
          "type": "address"
        },
        {
          "internalType": "uint256",
          "name": "addedValue",
          "type": "uint256"
        }
      ],
      "name": "increaseAllowance",
      "outputs": [
        {
          "internalType": "bool",
          "name": "",
          "type": "bool"
        }
      ],
      "stateMutability": "nonpayable",
      "type": "function"
    },
    {
      "inputs": [],
      "name": "incrementToken",
      "outputs": [
        {
          "internalType": "uint256",
          "name": "",
          "type": "uint256"
        }
      ],
      "stateMutability": "view",
      "type": "function",
      "constant": true
    },
    {
      "inputs": [
        {
          "internalType": "address",
          "name": "to",
          "type": "address"
        },
        {
          "internalType": "uint256",
          "name": "amount",
          "type": "uint256"
        }
      ],
      "name": "mint",
      "outputs": [],
      "stateMutability": "nonpayable",
      "type": "function"
    },
    {
      "inputs": [],
      "name": "name",
      "outputs": [
        {
          "internalType": "string",
          "name": "",
          "type": "string"
        }
      ],
      "stateMutability": "view",
      "type": "function",
      "constant": true
    },
    {
      "inputs": [],
      "name": "owner",
      "outputs": [
        {
          "internalType": "address",
          "name": "",
          "type": "address"
        }
      ],
      "stateMutability": "view",
      "type": "function",
      "constant": true
    },
    {
      "inputs": [],
      "name": "renounceOwnership",
      "outputs": [],
      "stateMutability": "nonpayable",
      "type": "function"
    },
    {
      "inputs": [],
      "name": "rewardValue",
      "outputs": [
        {
          "internalType": "uint256",
          "name": "",
          "type": "uint256"
        }
      ],
      "stateMutability": "view",
      "type": "function",
      "constant": true
    },
    {
      "inputs": [],
      "name": "symbol",
      "outputs": [
        {
          "internalType": "string",
          "name": "",
          "type": "string"
        }
      ],
      "stateMutability": "view",
      "type": "function",
      "constant": true
    },
    {
      "inputs": [],
      "name": "totalSupply",
      "outputs": [
        {
          "internalType": "uint256",
          "name": "",
          "type": "uint256"
        }
      ],
      "stateMutability": "view",
      "type": "function",
      "constant": true
    },
    {
      "inputs": [
        {
          "internalType": "address",
          "name": "to",
          "type": "address"
        },
        {
          "internalType": "uint256",
          "name": "amount",
          "type": "uint256"
        }
      ],
      "name": "transfer",
      "outputs": [
        {
          "internalType": "bool",
          "name": "",
          "type": "bool"
        }
      ],
      "stateMutability": "nonpayable",
      "type": "function"
    },
    {
      "inputs": [
        {
          "internalType": "address",
          "name": "from",
          "type": "address"
        },
        {
          "internalType": "address",
          "name": "to",
          "type": "address"
        },
        {
          "internalType": "uint256",
          "name": "amount",
          "type": "uint256"
        }
      ],
      "name": "transferFrom",
      "outputs": [
        {
          "internalType": "bool",
          "name": "",
          "type": "bool"
        }
      ],
      "stateMutability": "nonpayable",
      "type": "function"
    },
    {
      "inputs": [
        {
          "internalType": "address",
          "name": "newOwner",
          "type": "address"
        }
      ],
      "name": "transferOwnership",
      "outputs": [],
      "stateMutability": "nonpayable",
      "type": "function"
    },
    {
      "inputs": [
        {
          "internalType": "address",
          "name": "",
          "type": "address"
        }
      ],
      "name": "users",
      "outputs": [
        {
          "internalType": "bool",
          "name": "",
          "type": "bool"
        }
      ],
      "stateMutability": "view",
      "type": "function",
      "constant": true
    },
    {
      "inputs": [
        {
          "internalType": "uint256",
          "name": "_charityId",
          "type": "uint256"
        },
        {
          "internalType": "uint256",
          "name": "_getcharitymoney",
          "type": "uint256"
        },
        {
          "internalType": "address",
          "name": "userAaddr",
          "type": "address"
        }
      ],
      "name": "donate",
      "outputs": [],
      "stateMutability": "nonpayable",
      "type": "function"
    },
    {
      "inputs": [
        {
          "internalType": "uint256",
          "name": "_charityId",
          "type": "uint256"
        }
      ],
      "name": "sayThanksToDonar",
      "outputs": [],
      "stateMutability": "nonpayable",
      "type": "function"
    },
    {
      "inputs": [
        {
          "internalType": "uint256",
          "name": "_charityId",
          "type": "uint256"
        }
      ],
      "name": "getTotalAmountNeeded",
      "outputs": [
        {
          "internalType": "uint256",
          "name": "",
          "type": "uint256"
        }
      ],
      "stateMutability": "view",
      "type": "function",
      "constant": true
    },
    {
      "inputs": [],
      "name": "getTokens",
      "outputs": [
        {
          "internalType": "uint256",
          "name": "",
          "type": "uint256"
        }
      ],
      "stateMutability": "view",
      "type": "function",
      "constant": true
    },
    {
      "inputs": [],
      "name": "isOwnerContract",
      "outputs": [
        {
          "internalType": "bool",
          "name": "",
          "type": "bool"
        }
      ],
      "stateMutability": "view",
      "type": "function",
      "constant": true
    },
    {
      "inputs": [],
      "name": "getContractOwner",
      "outputs": [
        {
          "internalType": "address",
          "name": "",
          "type": "address"
        }
      ],
      "stateMutability": "view",
      "type": "function",
      "constant": true
    }
  ],
  "bytecode": "0x60806040523480156200001157600080fd5b506040518060400160405280600881526020017f446f446f6e6174650000000000000000000000000000000000000000000000008152506040518060400160405280600281526020017f444400000000000000000000000000000000000000000000000000000000000081525081600390816200008f91906200080f565b508060049081620000a191906200080f565b505050620000c4620000b86200026460201b60201c565b6200026c60201b60201c565b6200010233620000d96200033260201b60201c565b600a620000e7919062000a86565b612710620000f6919062000ad7565b6200033b60201b60201c565b33600760006101000a81548173ffffffffffffffffffffffffffffffffffffffff021916908373ffffffffffffffffffffffffffffffffffffffff160217905550620001536200033260201b60201c565b600a62000161919062000a86565b60016200016f919062000ad7565b600881905550620001856200033260201b60201c565b600a62000193919062000a86565b612710620001a2919062000ad7565b600981905550620002036040518060400160405280600a81526020017f43616d706169676e203100000000000000000000000000000000000000000000815250736283ccbd7d1c47477e284719b701c95227818f2a620004a860201b60201c565b6200025e6040518060400160405280600a81526020017f43616d706169676e203200000000000000000000000000000000000000000000815250737e8b25926493d5010ddee71b6d84364fe694c98a620004a860201b60201c565b62000c5b565b600033905090565b6000600560009054906101000a900473ffffffffffffffffffffffffffffffffffffffff16905081600560006101000a81548173ffffffffffffffffffffffffffffffffffffffff021916908373ffffffffffffffffffffffffffffffffffffffff1602179055508173ffffffffffffffffffffffffffffffffffffffff168173ffffffffffffffffffffffffffffffffffffffff167f8be0079c531659141344cd1fd0a4f28419497f9722a3daafe3b4186f6b6457e060405160405180910390a35050565b60006012905090565b600073ffffffffffffffffffffffffffffffffffffffff168273ffffffffffffffffffffffffffffffffffffffff1603620003ad576040517f08c379a0000000000000000000000000000000000000000000000000000000008152600401620003a49062000b83565b60405180910390fd5b620003c1600083836200058b60201b60201c565b8060026000828254620003d5919062000ba5565b92505081905550806000808473ffffffffffffffffffffffffffffffffffffffff1673ffffffffffffffffffffffffffffffffffffffff168152602001908152602001600020600082825401925050819055508173ffffffffffffffffffffffffffffffffffffffff16600073ffffffffffffffffffffffffffffffffffffffff167fddf252ad1be2c89b69c2b068fc378daa952ba7f163c4a11628f55a4df523b3ef8360405162000488919062000bf1565b60405180910390a3620004a4600083836200059060201b60201c565b5050565b600c6000815480929190620004bd9062000c0e565b91905055506040518060800160405280600c548152602001838152602001600081526020018273ffffffffffffffffffffffffffffffffffffffff16815250600b6000600c5481526020019081526020016000206000820151816000015560208201518160010190816200053291906200080f565b506040820151816002015560608201518160030160006101000a81548173ffffffffffffffffffffffffffffffffffffffff021916908373ffffffffffffffffffffffffffffffffffffffff1602179055509050505050565b505050565b505050565b600081519050919050565b7f4e487b7100000000000000000000000000000000000000000000000000000000600052604160045260246000fd5b7f4e487b7100000000000000000000000000000000000000000000000000000000600052602260045260246000fd5b600060028204905060018216806200061757607f821691505b6020821081036200062d576200062c620005cf565b5b50919050565b60008190508160005260206000209050919050565b60006020601f8301049050919050565b600082821b905092915050565b600060088302620006977fffffffffffffffffffffffffffffffffffffffffffffffffffffffffffffffff8262000658565b620006a3868362000658565b95508019841693508086168417925050509392505050565b6000819050919050565b6000819050919050565b6000620006f0620006ea620006e484620006bb565b620006c5565b620006bb565b9050919050565b6000819050919050565b6200070c83620006cf565b620007246200071b82620006f7565b84845462000665565b825550505050565b600090565b6200073b6200072c565b6200074881848462000701565b505050565b5b8181101562000770576200076460008262000731565b6001810190506200074e565b5050565b601f821115620007bf57620007898162000633565b620007948462000648565b81016020851015620007a4578190505b620007bc620007b38562000648565b8301826200074d565b50505b505050565b600082821c905092915050565b6000620007e460001984600802620007c4565b1980831691505092915050565b6000620007ff8383620007d1565b9150826002028217905092915050565b6200081a8262000595565b67ffffffffffffffff811115620008365762000835620005a0565b5b620008428254620005fe565b6200084f82828562000774565b600060209050601f83116001811462000887576000841562000872578287015190505b6200087e8582620007f1565b865550620008ee565b601f198416620008978662000633565b60005b82811015620008c1578489015182556001820191506020850194506020810190506200089a565b86831015620008e15784890151620008dd601f891682620007d1565b8355505b6001600288020188555050505b505050505050565b7f4e487b7100000000000000000000000000000000000000000000000000000000600052601160045260246000fd5b60008160011c9050919050565b6000808291508390505b600185111562000984578086048111156200095c576200095b620008f6565b5b60018516156200096c5780820291505b80810290506200097c8562000925565b94506200093c565b94509492505050565b6000826200099f576001905062000a72565b81620009af576000905062000a72565b8160018114620009c85760028114620009d35762000a09565b600191505062000a72565b60ff841115620009e857620009e7620008f6565b5b8360020a91508482111562000a025762000a01620008f6565b5b5062000a72565b5060208310610133831016604e8410600b841016171562000a435782820a90508381111562000a3d5762000a3c620008f6565b5b62000a72565b62000a52848484600162000932565b9250905081840481111562000a6c5762000a6b620008f6565b5b81810290505b9392505050565b600060ff82169050919050565b600062000a9382620006bb565b915062000aa08362000a79565b925062000acf7fffffffffffffffffffffffffffffffffffffffffffffffffffffffffffffffff84846200098d565b905092915050565b600062000ae482620006bb565b915062000af183620006bb565b925082820262000b0181620006bb565b9150828204841483151762000b1b5762000b1a620008f6565b5b5092915050565b600082825260208201905092915050565b7f45524332303a206d696e7420746f20746865207a65726f206164647265737300600082015250565b600062000b6b601f8362000b22565b915062000b788262000b33565b602082019050919050565b6000602082019050818103600083015262000b9e8162000b5c565b9050919050565b600062000bb282620006bb565b915062000bbf83620006bb565b925082820190508082111562000bda5762000bd9620008f6565b5b92915050565b62000beb81620006bb565b82525050565b600060208201905062000c08600083018462000be0565b92915050565b600062000c1b82620006bb565b91507fffffffffffffffffffffffffffffffffffffffffffffffffffffffffffffffff820362000c505762000c4f620008f6565b5b600182019050919050565b6124e18062000c6b6000396000f3fe608060405234801561001057600080fd5b50600436106101c45760003560e01c806391329493116100f9578063b9108a3411610097578063f2fde38b11610071578063f2fde38b14610521578063f6a800ee1461053d578063fb709d2e1461055b578063fb8bc1eb1461058e576101c4565b8063b9108a34146104b7578063ce606ee0146104d3578063dd62ed3e146104f1576101c4565b8063a87430ba116100d3578063a87430ba1461041d578063a9059cbb1461044d578063aa6ca8081461047d578063b0862bd21461049b576101c4565b806391329493146103b157806395d89b41146103cf578063a457c2d7146103ed576101c4565b806340c10f191161016657806370a082311161014057806370a082311461033b578063715018a61461036b578063779ea468146103755780638da5cb5b14610393576101c4565b806340c10f19146102d1578063442890d5146102ed57806362746bd31461030b576101c4565b806318160ddd116101a257806318160ddd1461023557806323b872dd14610253578063313ce5671461028357806339509351146102a1576101c4565b806306fdde03146101c9578063095ea7b3146101e757806312c7df7314610217575b600080fd5b6101d16105be565b6040516101de9190611848565b60405180910390f35b61020160048036038101906101fc9190611903565b610650565b60405161020e919061195e565b60405180910390f35b61021f610673565b60405161022c9190611988565b60405180910390f35b61023d610679565b60405161024a9190611988565b60405180910390f35b61026d600480360381019061026891906119a3565b610683565b60405161027a919061195e565b60405180910390f35b61028b6106b2565b6040516102989190611a12565b60405180910390f35b6102bb60048036038101906102b69190611903565b6106bb565b6040516102c8919061195e565b60405180910390f35b6102eb60048036038101906102e69190611903565b6106f2565b005b6102f5610708565b6040516103029190611a3c565b60405180910390f35b61032560048036038101906103209190611a57565b610732565b6040516103329190611988565b60405180910390f35b61035560048036038101906103509190611a84565b61075f565b6040516103629190611988565b60405180910390f35b6103736107a7565b005b61037d6107bb565b60405161038a919061195e565b60405180910390f35b61039b610823565b6040516103a89190611a3c565b60405180910390f35b6103b961084d565b6040516103c69190611988565b60405180910390f35b6103d7610853565b6040516103e49190611848565b60405180910390f35b61040760048036038101906104029190611903565b6108e5565b604051610414919061195e565b60405180910390f35b61043760048036038101906104329190611a84565b61095c565b604051610444919061195e565b60405180910390f35b61046760048036038101906104629190611903565b61097c565b604051610474919061195e565b60405180910390f35b61048561099f565b6040516104929190611988565b60405180910390f35b6104b560048036038101906104b09190611ab1565b6109af565b005b6104d160048036038101906104cc9190611a57565b610c42565b005b6104db610de5565b6040516104e89190611a3c565b60405180910390f35b61050b60048036038101906105069190611b04565b610e0b565b6040516105189190611988565b60405180910390f35b61053b60048036038101906105369190611a84565b610e92565b005b610545610f15565b6040516105529190611988565b60405180910390f35b61057560048036038101906105709190611a57565b610f1b565b6040516105859493929190611b65565b60405180910390f35b6105a860048036038101906105a39190611bb1565b610ff3565b6040516105b59190611a3c565b60405180910390f35b6060600380546105cd90611c20565b80601f01602080910402602001604051908101604052809291908181526020018280546105f990611c20565b80156106465780601f1061061b57610100808354040283529160200191610646565b820191906000526020600020905b81548152906001019060200180831161062957829003601f168201915b5050505050905090565b60008061065b611041565b9050610668818585611049565b600191505092915050565b60085481565b6000600254905090565b60008061068e611041565b905061069b858285611212565b6106a685858561129e565b60019150509392505050565b60006012905090565b6000806106c6611041565b90506106e78185856106d88589610e0b565b6106e29190611c80565b611049565b600191505092915050565b6106fa611514565b6107048282611592565b5050565b6000600760009054906101000a900473ffffffffffffffffffffffffffffffffffffffff16905090565b600060085460066000848152602001908152602001600020805490506107589190611cb4565b9050919050565b60008060008373ffffffffffffffffffffffffffffffffffffffff1673ffffffffffffffffffffffffffffffffffffffff168152602001908152602001600020549050919050565b6107af611514565b6107b960006116e8565b565b6000600760009054906101000a900473ffffffffffffffffffffffffffffffffffffffff1673ffffffffffffffffffffffffffffffffffffffff163373ffffffffffffffffffffffffffffffffffffffff160361081b5760019050610820565b600090505b90565b6000600560009054906101000a900473ffffffffffffffffffffffffffffffffffffffff16905090565b600c5481565b60606004805461086290611c20565b80601f016020809104026020016040519081016040528092919081815260200182805461088e90611c20565b80156108db5780601f106108b0576101008083540402835291602001916108db565b820191906000526020600020905b8154815290600101906020018083116108be57829003601f168201915b5050505050905090565b6000806108f0611041565b905060006108fe8286610e0b565b905083811015610943576040517f08c379a000000000000000000000000000000000000000000000000000000000815260040161093a90611d68565b60405180910390fd5b6109508286868403611049565b60019250505092915050565b600a6020528060005260406000206000915054906101000a900460ff1681565b600080610987611041565b905061099481858561129e565b600191505092915050565b60006109aa3361075f565b905090565b81600081116109f3576040517f08c379a00000000000000000000000000000000000000000000000000000000081526004016109ea90611dfa565b60405180910390fd5b8360008111610a37576040517f08c379a0000000000000000000000000000000000000000000000000000000008152600401610a2e90611e66565b60405180910390fd5b84838073ffffffffffffffffffffffffffffffffffffffff16600b600084815260200190815260200160002060030160009054906101000a900473ffffffffffffffffffffffffffffffffffffffff1673ffffffffffffffffffffffffffffffffffffffff1603610add576040517f08c379a0000000000000000000000000000000000000000000000000000000008152600401610ad490611ef8565b60405180910390fd5b600087118015610aef5750600c548711155b8015610afb5750600086115b610b0457600080fd5b60066000888152602001908152602001600020339080600181540180825580915050600190039060005260206000200160009091909190916101000a81548173ffffffffffffffffffffffffffffffffffffffff021916908373ffffffffffffffffffffffffffffffffffffffff1602179055506001600a60003373ffffffffffffffffffffffffffffffffffffffff1673ffffffffffffffffffffffffffffffffffffffff16815260200190815260200160002060006101000a81548160ff02191690831515021790555085600b600089815260200190815260200160002060020154610bf29190611c80565b600b600089815260200190815260200160002060020181905550867f72d53a4ff9f09e73504a6d8a528e30493e53d8393a83c1e1e63c468e97eb09cf60405160405180910390a250505050505050565b600760009054906101000a900473ffffffffffffffffffffffffffffffffffffffff1673ffffffffffffffffffffffffffffffffffffffff163373ffffffffffffffffffffffffffffffffffffffff1614610cd2576040517f08c379a0000000000000000000000000000000000000000000000000000000008152600401610cc990611f64565b60405180910390fd5b6000610cff600760009054906101000a900473ffffffffffffffffffffffffffffffffffffffff1661075f565b90506000610d0c83610732565b9050808211610d4f57610d4e600760009054906101000a900473ffffffffffffffffffffffffffffffffffffffff1682600954610d499190611c80565b6106f2565b5b60005b6006600085815260200190815260200160002080549050811015610ddf57610dcb600660008681526020019081526020016000208281548110610d9857610d97611f84565b5b9060005260206000200160009054906101000a900473ffffffffffffffffffffffffffffffffffffffff1660085461097c565b508080610dd790611fb3565b915050610d52565b50505050565b600760009054906101000a900473ffffffffffffffffffffffffffffffffffffffff1681565b6000600160008473ffffffffffffffffffffffffffffffffffffffff1673ffffffffffffffffffffffffffffffffffffffff16815260200190815260200160002060008373ffffffffffffffffffffffffffffffffffffffff1673ffffffffffffffffffffffffffffffffffffffff16815260200190815260200160002054905092915050565b610e9a611514565b600073ffffffffffffffffffffffffffffffffffffffff168173ffffffffffffffffffffffffffffffffffffffff1603610f09576040517f08c379a0000000000000000000000000000000000000000000000000000000008152600401610f009061206d565b60405180910390fd5b610f12816116e8565b50565b60095481565b600b602052806000526040600020600091509050806000015490806001018054610f4490611c20565b80601f0160208091040260200160405190810160405280929190818152602001828054610f7090611c20565b8015610fbd5780601f10610f9257610100808354040283529160200191610fbd565b820191906000526020600020905b815481529060010190602001808311610fa057829003601f168201915b5050505050908060020154908060030160009054906101000a900473ffffffffffffffffffffffffffffffffffffffff16905084565b6006602052816000526040600020818154811061100f57600080fd5b906000526020600020016000915091509054906101000a900473ffffffffffffffffffffffffffffffffffffffff1681565b600033905090565b600073ffffffffffffffffffffffffffffffffffffffff168373ffffffffffffffffffffffffffffffffffffffff16036110b8576040517f08c379a00000000000000000000000000000000000000000000000000000000081526004016110af906120ff565b60405180910390fd5b600073ffffffffffffffffffffffffffffffffffffffff168273ffffffffffffffffffffffffffffffffffffffff1603611127576040517f08c379a000000000000000000000000000000000000000000000000000000000815260040161111e90612191565b60405180910390fd5b80600160008573ffffffffffffffffffffffffffffffffffffffff1673ffffffffffffffffffffffffffffffffffffffff16815260200190815260200160002060008473ffffffffffffffffffffffffffffffffffffffff1673ffffffffffffffffffffffffffffffffffffffff168152602001908152602001600020819055508173ffffffffffffffffffffffffffffffffffffffff168373ffffffffffffffffffffffffffffffffffffffff167f8c5be1e5ebec7d5bd14f71427d1e84f3dd0314c0f7b2291e5b200ac8c7c3b925836040516112059190611988565b60405180910390a3505050565b600061121e8484610e0b565b90507fffffffffffffffffffffffffffffffffffffffffffffffffffffffffffffffff8114611298578181101561128a576040517f08c379a0000000000000000000000000000000000000000000000000000000008152600401611281906121fd565b60405180910390fd5b6112978484848403611049565b5b50505050565b600073ffffffffffffffffffffffffffffffffffffffff168373ffffffffffffffffffffffffffffffffffffffff160361130d576040517f08c379a00000000000000000000000000000000000000000000000000000000081526004016113049061228f565b60405180910390fd5b600073ffffffffffffffffffffffffffffffffffffffff168273ffffffffffffffffffffffffffffffffffffffff160361137c576040517f08c379a000000000000000000000000000000000000000000000000000000000815260040161137390612321565b60405180910390fd5b6113878383836117ae565b60008060008573ffffffffffffffffffffffffffffffffffffffff1673ffffffffffffffffffffffffffffffffffffffff1681526020019081526020016000205490508181101561140d576040517f08c379a0000000000000000000000000000000000000000000000000000000008152600401611404906123b3565b60405180910390fd5b8181036000808673ffffffffffffffffffffffffffffffffffffffff1673ffffffffffffffffffffffffffffffffffffffff16815260200190815260200160002081905550816000808573ffffffffffffffffffffffffffffffffffffffff1673ffffffffffffffffffffffffffffffffffffffff168152602001908152602001600020600082825401925050819055508273ffffffffffffffffffffffffffffffffffffffff168473ffffffffffffffffffffffffffffffffffffffff167fddf252ad1be2c89b69c2b068fc378daa952ba7f163c4a11628f55a4df523b3ef846040516114fb9190611988565b60405180910390a361150e8484846117b3565b50505050565b61151c611041565b73ffffffffffffffffffffffffffffffffffffffff1661153a610823565b73ffffffffffffffffffffffffffffffffffffffff1614611590576040517f08c379a00000000000000000000000000000000000000000000000000000000081526004016115879061241f565b60405180910390fd5b565b600073ffffffffffffffffffffffffffffffffffffffff168273ffffffffffffffffffffffffffffffffffffffff1603611601576040517f08c379a00000000000000000000000000000000000000000000000000000000081526004016115f89061248b565b60405180910390fd5b61160d600083836117ae565b806002600082825461161f9190611c80565b92505081905550806000808473ffffffffffffffffffffffffffffffffffffffff1673ffffffffffffffffffffffffffffffffffffffff168152602001908152602001600020600082825401925050819055508173ffffffffffffffffffffffffffffffffffffffff16600073ffffffffffffffffffffffffffffffffffffffff167fddf252ad1be2c89b69c2b068fc378daa952ba7f163c4a11628f55a4df523b3ef836040516116d09190611988565b60405180910390a36116e4600083836117b3565b5050565b6000600560009054906101000a900473ffffffffffffffffffffffffffffffffffffffff16905081600560006101000a81548173ffffffffffffffffffffffffffffffffffffffff021916908373ffffffffffffffffffffffffffffffffffffffff1602179055508173ffffffffffffffffffffffffffffffffffffffff168173ffffffffffffffffffffffffffffffffffffffff167f8be0079c531659141344cd1fd0a4f28419497f9722a3daafe3b4186f6b6457e060405160405180910390a35050565b505050565b505050565b600081519050919050565b600082825260208201905092915050565b60005b838110156117f25780820151818401526020810190506117d7565b60008484015250505050565b6000601f19601f8301169050919050565b600061181a826117b8565b61182481856117c3565b93506118348185602086016117d4565b61183d816117fe565b840191505092915050565b60006020820190508181036000830152611862818461180f565b905092915050565b600080fd5b600073ffffffffffffffffffffffffffffffffffffffff82169050919050565b600061189a8261186f565b9050919050565b6118aa8161188f565b81146118b557600080fd5b50565b6000813590506118c7816118a1565b92915050565b6000819050919050565b6118e0816118cd565b81146118eb57600080fd5b50565b6000813590506118fd816118d7565b92915050565b6000806040838503121561191a5761191961186a565b5b6000611928858286016118b8565b9250506020611939858286016118ee565b9150509250929050565b60008115159050919050565b61195881611943565b82525050565b6000602082019050611973600083018461194f565b92915050565b611982816118cd565b82525050565b600060208201905061199d6000830184611979565b92915050565b6000806000606084860312156119bc576119bb61186a565b5b60006119ca868287016118b8565b93505060206119db868287016118b8565b92505060406119ec868287016118ee565b9150509250925092565b600060ff82169050919050565b611a0c816119f6565b82525050565b6000602082019050611a276000830184611a03565b92915050565b611a368161188f565b82525050565b6000602082019050611a516000830184611a2d565b92915050565b600060208284031215611a6d57611a6c61186a565b5b6000611a7b848285016118ee565b91505092915050565b600060208284031215611a9a57611a9961186a565b5b6000611aa8848285016118b8565b91505092915050565b600080600060608486031215611aca57611ac961186a565b5b6000611ad8868287016118ee565b9350506020611ae9868287016118ee565b9250506040611afa868287016118b8565b9150509250925092565b60008060408385031215611b1b57611b1a61186a565b5b6000611b29858286016118b8565b9250506020611b3a858286016118b8565b9150509250929050565b6000611b4f8261186f565b9050919050565b611b5f81611b44565b82525050565b6000608082019050611b7a6000830187611979565b8181036020830152611b8c818661180f565b9050611b9b6040830185611979565b611ba86060830184611b56565b95945050505050565b60008060408385031215611bc857611bc761186a565b5b6000611bd6858286016118ee565b9250506020611be7858286016118ee565b9150509250929050565b7f4e487b7100000000000000000000000000000000000000000000000000000000600052602260045260246000fd5b60006002820490506001821680611c3857607f821691505b602082108103611c4b57611c4a611bf1565b5b50919050565b7f4e487b7100000000000000000000000000000000000000000000000000000000600052601160045260246000fd5b6000611c8b826118cd565b9150611c96836118cd565b9250828201905080821115611cae57611cad611c51565b5b92915050565b6000611cbf826118cd565b9150611cca836118cd565b9250828202611cd8816118cd565b91508282048414831517611cef57611cee611c51565b5b5092915050565b7f45524332303a2064656372656173656420616c6c6f77616e63652062656c6f7760008201527f207a65726f000000000000000000000000000000000000000000000000000000602082015250565b6000611d526025836117c3565b9150611d5d82611cf6565b604082019050919050565b60006020820190508181036000830152611d8181611d45565b9050919050565b7f496e76616c6964206d6f6e65792e2054686520616d6f756e74206d757374206260008201527f652067726561746572207468616e20302e000000000000000000000000000000602082015250565b6000611de46031836117c3565b9150611def82611d88565b604082019050919050565b60006020820190508181036000830152611e1381611dd7565b9050919050565b7f496e76616c696420636861726974792069642e00000000000000000000000000600082015250565b6000611e506013836117c3565b9150611e5b82611e1a565b602082019050919050565b60006020820190508181036000830152611e7f81611e43565b9050919050565b7f496e76616c69642075736572212120446f6e6174696f6e20416464726573732060008201527f616e6420557365722041646472657373206172652073616d65202e0000000000602082015250565b6000611ee2603b836117c3565b9150611eed82611e86565b604082019050919050565b60006020820190508181036000830152611f1181611ed5565b9050919050565b7f4e6f7420416e20616f776e657220000000000000000000000000000000000000600082015250565b6000611f4e600e836117c3565b9150611f5982611f18565b602082019050919050565b60006020820190508181036000830152611f7d81611f41565b9050919050565b7f4e487b7100000000000000000000000000000000000000000000000000000000600052603260045260246000fd5b6000611fbe826118cd565b91507fffffffffffffffffffffffffffffffffffffffffffffffffffffffffffffffff8203611ff057611fef611c51565b5b600182019050919050565b7f4f776e61626c653a206e6577206f776e657220697320746865207a65726f206160008201527f6464726573730000000000000000000000000000000000000000000000000000602082015250565b60006120576026836117c3565b915061206282611ffb565b604082019050919050565b600060208201905081810360008301526120868161204a565b9050919050565b7f45524332303a20617070726f76652066726f6d20746865207a65726f2061646460008201527f7265737300000000000000000000000000000000000000000000000000000000602082015250565b60006120e96024836117c3565b91506120f48261208d565b604082019050919050565b60006020820190508181036000830152612118816120dc565b9050919050565b7f45524332303a20617070726f766520746f20746865207a65726f20616464726560008201527f7373000000000000000000000000000000000000000000000000000000000000602082015250565b600061217b6022836117c3565b91506121868261211f565b604082019050919050565b600060208201905081810360008301526121aa8161216e565b9050919050565b7f45524332303a20696e73756666696369656e7420616c6c6f77616e6365000000600082015250565b60006121e7601d836117c3565b91506121f2826121b1565b602082019050919050565b60006020820190508181036000830152612216816121da565b9050919050565b7f45524332303a207472616e736665722066726f6d20746865207a65726f20616460008201527f6472657373000000000000000000000000000000000000000000000000000000602082015250565b60006122796025836117c3565b91506122848261221d565b604082019050919050565b600060208201905081810360008301526122a88161226c565b9050919050565b7f45524332303a207472616e7366657220746f20746865207a65726f206164647260008201527f6573730000000000000000000000000000000000000000000000000000000000602082015250565b600061230b6023836117c3565b9150612316826122af565b604082019050919050565b6000602082019050818103600083015261233a816122fe565b9050919050565b7f45524332303a207472616e7366657220616d6f756e742065786365656473206260008201527f616c616e63650000000000000000000000000000000000000000000000000000602082015250565b600061239d6026836117c3565b91506123a882612341565b604082019050919050565b600060208201905081810360008301526123cc81612390565b9050919050565b7f4f776e61626c653a2063616c6c6572206973206e6f7420746865206f776e6572600082015250565b60006124096020836117c3565b9150612414826123d3565b602082019050919050565b60006020820190508181036000830152612438816123fc565b9050919050565b7f45524332303a206d696e7420746f20746865207a65726f206164647265737300600082015250565b6000612475601f836117c3565b91506124808261243f565b602082019050919050565b600060208201905081810360008301526124a481612468565b905091905056fea264697066735822122017233fe25438b688a7b852b5bdf02e3194c0b0ef453116c8e75efcd17fdb0aa864736f6c63430008110033",
  "immutableReferences": {},
  "source": "pragma solidity ^0.8.17;\n\n\nimport \"./CharityToken.sol\";\n\ncontract Charity is CharityToken{\n    struct CharityInfo {\n        uint id;\n        string name;\n        uint donatedAmount;\n        address payable charityAddress;\n\n    }\n    mapping(uint => address[]) public CharityDonarMappings;\n    address public contractOwner;\n    uint public rewardValue;\n    uint public incrementToken;\n    mapping(address => bool) public users;\n    mapping(uint => CharityInfo) public charities;\n    uint public charityCount;\n    event donatedEvent (\n        uint indexed _charityId\n    );\n    constructor () {\n        contractOwner = msg.sender;\n        rewardValue = 1 * 10 ** decimals();\n        incrementToken =  10000 * 10 ** decimals();\n        addCharity(\"Campaign 1\",payable(0x6283ccBd7D1c47477E284719B701c95227818F2A));\n        addCharity(\"Campaign 2\",payable(0x7e8B25926493d5010ddEe71b6d84364FE694C98A));\n    }\n    modifier validmoney(uint _getcharitymoney) {\n        require(_getcharitymoney > 0, 'Invalid money. The amount must be greater than 0.');\n        _;\n    }\n    modifier validID(uint _charityId) {\n        require(_charityId > 0, 'Invalid charity id.');\n        _;\n    }\n    modifier validUser(uint _charityId, address userAaddr) {\n        require(charities[_charityId].charityAddress != userAaddr, 'Invalid user!! Donation Address and User Address are same .');\n        _;\n    }\n    modifier onlyOwn {\n    require(msg.sender == contractOwner,\"Not An aowner \");\n    _;\n}\n    function addCharity (string memory _name, address payable charityAddress) private {\n        charityCount ++;\n        charities[charityCount] = CharityInfo(charityCount, _name, 0, charityAddress);\n    }\n    function donate (uint _charityId, uint _getcharitymoney, address userAaddr ) public validmoney(_getcharitymoney) validID(_charityId) validUser(_charityId, userAaddr) {\n\n        require(_charityId > 0 && _charityId <= charityCount && _getcharitymoney > 0);\n\n        CharityDonarMappings[_charityId].push(msg.sender);\n\n        users[msg.sender] = true;\n\n        charities[_charityId].donatedAmount = charities[_charityId].donatedAmount + _getcharitymoney; \n\n        emit donatedEvent(_charityId);\n    }\n    function sayThanksToDonar(uint _charityId) onlyOwn public {\n        uint balance = balanceOf(contractOwner);\n        uint totalAmount = getTotalAmountNeeded(_charityId);\n        if ( balance <= totalAmount) {\n            mint(contractOwner,incrementToken+totalAmount);\n        }\n        for(uint i=0;i< CharityDonarMappings[_charityId].length;i++){\n            transfer(CharityDonarMappings[_charityId][i],rewardValue);\n        }\n    }\n    function getTotalAmountNeeded(uint _charityId) public view returns (uint) {\n        return CharityDonarMappings[_charityId].length * rewardValue;\n    }\n     function getTokens() public view returns (uint) {\n        return balanceOf(msg.sender);\n    }\n     function isOwnerContract() public view returns (bool) {\n        if (msg.sender == contractOwner) {\n            return true;\n        }\n        return false;\n    }\n     function getContractOwner() public view returns (address) {\n        return contractOwner;\n    }\n}",
  "sourcePath": "/Users/nithinkaira/Documents/Courses/Block Chain/charity_project/contracts/Charity.sol",
  "compiler": {
    "name": "solc",
    "version": "0.8.17+commit.8df45f5f.Emscripten.clang"
  },
  "schemaVersion": "3.4.10",
  "updatedAt": "2022-12-09T07:52:37.515Z",
  "networkType": "ethereum",
  "devdoc": {
    "kind": "dev",
    "methods": {
      "allowance(address,address)": {
        "details": "See {IERC20-allowance}."
      },
      "approve(address,uint256)": {
        "details": "See {IERC20-approve}. NOTE: If `amount` is the maximum `uint256`, the allowance is not updated on `transferFrom`. This is semantically equivalent to an infinite approval. Requirements: - `spender` cannot be the zero address."
      },
      "balanceOf(address)": {
        "details": "See {IERC20-balanceOf}."
      },
      "decimals()": {
        "details": "Returns the number of decimals used to get its user representation. For example, if `decimals` equals `2`, a balance of `505` tokens should be displayed to a user as `5.05` (`505 / 10 ** 2`). Tokens usually opt for a value of 18, imitating the relationship between Ether and Wei. This is the value {ERC20} uses, unless this function is overridden; NOTE: This information is only used for _display_ purposes: it in no way affects any of the arithmetic of the contract, including {IERC20-balanceOf} and {IERC20-transfer}."
      },
      "decreaseAllowance(address,uint256)": {
        "details": "Atomically decreases the allowance granted to `spender` by the caller. This is an alternative to {approve} that can be used as a mitigation for problems described in {IERC20-approve}. Emits an {Approval} event indicating the updated allowance. Requirements: - `spender` cannot be the zero address. - `spender` must have allowance for the caller of at least `subtractedValue`."
      },
      "increaseAllowance(address,uint256)": {
        "details": "Atomically increases the allowance granted to `spender` by the caller. This is an alternative to {approve} that can be used as a mitigation for problems described in {IERC20-approve}. Emits an {Approval} event indicating the updated allowance. Requirements: - `spender` cannot be the zero address."
      },
      "name()": {
        "details": "Returns the name of the token."
      },
      "owner()": {
        "details": "Returns the address of the current owner."
      },
      "renounceOwnership()": {
        "details": "Leaves the contract without owner. It will not be possible to call `onlyOwner` functions anymore. Can only be called by the current owner. NOTE: Renouncing ownership will leave the contract without an owner, thereby removing any functionality that is only available to the owner."
      },
      "symbol()": {
        "details": "Returns the symbol of the token, usually a shorter version of the name."
      },
      "totalSupply()": {
        "details": "See {IERC20-totalSupply}."
      },
      "transfer(address,uint256)": {
        "details": "See {IERC20-transfer}. Requirements: - `to` cannot be the zero address. - the caller must have a balance of at least `amount`."
      },
      "transferFrom(address,address,uint256)": {
        "details": "See {IERC20-transferFrom}. Emits an {Approval} event indicating the updated allowance. This is not required by the EIP. See the note at the beginning of {ERC20}. NOTE: Does not update the allowance if the current allowance is the maximum `uint256`. Requirements: - `from` and `to` cannot be the zero address. - `from` must have a balance of at least `amount`. - the caller must have allowance for ``from``'s tokens of at least `amount`."
      },
      "transferOwnership(address)": {
        "details": "Transfers ownership of the contract to a new account (`newOwner`). Can only be called by the current owner."
      }
    },
    "version": 1
  },
  "userdoc": {
    "kind": "user",
    "methods": {},
    "version": 1
  }
}